{"abi":[{"type":"function","name":"getValue","inputs":[],"outputs":[{"name":"","type":"uint256","internalType":"uint256"}],"stateMutability":"view"},{"type":"function","name":"setValue","inputs":[{"name":"_value","type":"uint256","internalType":"uint256"}],"outputs":[],"stateMutability":"nonpayable"},{"type":"event","name":"ValueChanged","inputs":[{"name":"newValue","type":"uint256","indexed":false,"internalType":"uint256"}],"anonymous":false}],"bytecode":{"object":"0x608060405234801561000f575f80fd5b5060df8061001c5f395ff3fe6080604052348015600e575f80fd5b50600436106030575f3560e01c80632096525514603457806355241077146048575b5f80fd5b5f5460405190815260200160405180910390f35b605760533660046093565b6059565b005b5f8190556040518181527f93fe6d397c74fdf1402a8b72e47b68512f0510d7b98a4bc4cbdf6ac7108b3c599060200160405180910390a150565b5f6020828403121560a2575f80fd5b503591905056fea2646970667358221220fc62ef748666d71a352df564d589c8dd07f56521c340fcfedb2266172c70505f64736f6c63430008180033","linkReferences":{}},"methodIdentifiers":{"getValue()":"20965255","setValue(uint256)":"55241077"},"id":21}